S015000041524455494E4F5F4C41425F382E7372656338
S11300000C9434000C9446000C9446000C94460066
S11300100C948A000C9446000C9446000C94460000
S11300200C9446000C9446000C9446000C94460034
S11300300C9446000C9446000C9446000C94460024
S11300400C9446000C9446000C9446000C94460014
S11300500C9446000C9446000C9446000C94460004
S11300600C9446000C94460011241FBECFEFD8E038
S1130070DEBFCDBF21E0A0E0B1E001C01D92A230FF
S1130080B207E1F70E9471000C94C3000C940000C5
S1130090E0ECF0E08081826080831092C50080E112
S11300A08093C40088E08093C10086E08093C200FE
S11300B008959091C00095FFFCCF8093C6000895E9
S11300C087B1807C87B988B18F6388B9E8E6F0E0AE
S11300D0808182608083ECE6F0E080818F6380839E
S11300E008950E9448000E94600078948091010164
S11300F08823E1F3809100010E9459002FEF83ECE3
S113010099E0215080409040E1F700C00000109237
S11301100101ECCF1F920F920FB60F9211248F930F
S113012086B180958F7331F58430A9F028F481303D
S113013051F0823061F021C08031A9F08032B9F0F1
S11301408830D9F40CC085E58093000113C084E4A1
S1130150809300010FC082E5809300010BC08CE402
S11301608093000107C082E48093000103C081E40E
S11301708093000181E0809301018F910F900FBE65
S10D01800F901F901895F894FFCF1C
S9030000FC
