:100000000C943B000C9458000C9458000C9458002D
:100010000C9458000C9458000C9458000C94580000
:100020000C9458000C9458000C9458000C945800F0
:100030000C9458000C9458000C9458000C945800E0
:100040000C9458000C9458000C94AA010C9458007D
:100050000C9458000C9458000C9458000C945800C0
:100060000C9458000C94580068016F0176018001CF
:100070008A0194019E0111241FBECFEFD8E0DEBF9C
:10008000CDBF11E0A0E0B1E0E6E7F5E002C00590E9
:100090000D92A831B107D9F721E0A8E1B1E001C084
:1000A0001D92A438B207E1F70E94E0000C94B90257
:1000B0000C9400008FEF8AB91BB884B1836084B9B7
:1000C00085B18C7F85B985B1846085B908958F929B
:1000D0009F92AF92BF92CF92DF92EF92FF92CF9317
:1000E000DF93282F30E0A8E8B3E10E9475026B018E
:1000F0007C012FEF33E040E050E00E944D024901C7
:100100005A01C701B60128E13CE94FE050E00E94E6
:100110004D02F22EC501B40128EE33E040E050E07C
:100120000E944D022AE030E040E050E00E944D0283
:10013000C22F8F2D90E00E94070280E091E00E9484
:100140002102CA3020F482E091E00E9421028C2F2B
:1001500090E00E94070284E091E00E94F401DF91A8
:10016000CF91FF90EF90DF90CF90BF90AF909F9096
:100170008F900895CF93DF93D82FC62F0E942E0221
:100180008823D9F08CE591E00E94310280915C01D6
:10019000803298F0813341F486E091E00E942102A0
:1001A0008D2F0E94670009C0823339F48FE091E0FF
:1001B0000E9421028C2F0E946700DF91CF91089549
:1001C0000E945A000E94E10120E040E060E083E5E7
:1001D0000E943901789485B18B7F85B981E30E94B3
:1001E000A50187EC90E00197F1F700C0000080E0E6
:1001F0000E94A5018EB58093190185B1846085B9EF
:100200008FE39CE90197F1F700C0000085B18B7F77
:1002100085B982E30E94A50187EC90E00197F1F790
:1002200000C0000080E00E94A5018EB580931801F7
:1002300085B1846085B9809119018C7F8BB985B1B6
:100240009091190192959695969593708C7F892B34
:1002500085B960911801809119010E94BA009FEF41
:1002600021EE84E0915020408040E1F700C0000082
:10027000B2CFE82FE071F0E0309751F094B19C627A
:1002800094B994B19F7E94B995B1946095B906C024
:1002900094B1906194B994B1937D94B9462B242B79
:1002A00020642CBDEF2B21F09CB590619CBD03C058
:1002B0009CB59F7E9CBDE82FE7708E2F90E0873025
:1002C000910508F041C0FC01EC5CFF4F0C946F02FB
:1002D0008CB58C7F8CBD8DB581608DBD08958CB53E
:1002E0008C7F8CBD8DB58E7F8DBD08958CB5816062
:1002F0008CBD8CB58D7F8CBD8DB581608DBD089515
:100300008CB581608CBD8CB58D7F8CBD8DB58E7F9D
:100310008DBD08958CB58E7F8CBD8CB582608CBDF3
:100320008DB581608DBD08958CB58E7F8CBD8CB5EB
:1003300082608CBD8DB58E7F8DBD08958CB5836038
:100340008CBD8DB58E7F8DBD08958EBD0DB407FE1D
:10035000FDCF08951F920F920FB60F9211248F9325
:100360009F93EF93FF938091C60090911A01911192
:100370001FC08A3011F08D3061F4E0911B01F0E074
:10038000E45EFE4F108281E080931A0110921B01FF
:100390000FC090911B019F3358F4E0911B01F0E0D6
:1003A000E45EFE4F808380911B018F5F80931B0171
:1003B000FF91EF919F918F910F900FBE0F901F9023
:1003C00018951092C50087E68093C40088E9809351
:1003D000C10086E08093C20008959091C00095FF0F
:1003E000FCCF8093C6000895CF93DF93EC0103C048
:1003F00021960E94ED0188818111FACF8DE00E9443
:10040000ED018AE00E94ED01DF91CF910895CF9335
:10041000DF9300D000D000D0CDB7DEB74AE0BE01F8
:100420006F5F7F4F0E948402CE0101960E94F4010B
:1004300026960FB6F894DEBF0FBECDBFDF91CF91E9
:100440000895CF93DF93EC0103C021960E94ED0144
:1004500088818111FACFDF91CF91089580911A019F
:100460000895BC0190E009C0FB01E90FF11DD9011D
:10047000A45EBE4F2C9120839F5F292F30E0F901AD
:10048000E45EFE4F40814111EFCFFB01E90FF11D0A
:1004900080E3808310921A010895A1E21A2EAA1B0C
:1004A000BB1BFD010DC0AA1FBB1FEE1FFF1FA21724
:1004B000B307E407F50720F0A21BB30BE40BF50B21
:1004C000661F771F881F991F1A9469F760957095AA
:1004D000809590959B01AC01BD01CF010895EE0F71
:1004E000FF1F0590F491E02D0994A29FB001B39FE6
:1004F000C001A39F700D811D1124911DB29F700D2D
:10050000811D1124911D0895BB274A3031F4992390
:1005100022F4BDE2909581959F4F0C949002BB27E9
:10052000FB015527AA27880F991FAA1FA41710F0AF
:10053000A41B83955051B9F7A05DAA3308F0A95DBB
:10054000A193009779F7B111B1931192CB010C945B
:10055000A902DC01FC01672F71917723E1F7329743
:1005600004C07C916D9370836291AE17BF07C8F38E
:060570000895F894FFCF8E
:100576002E0030005600506F746520313A2000502E
:080586006F746520323A200079
:00000001FF
