S01900004C41424F5241544F52494F5F335F5350492E73726563F0
S11300000C943B000C9458000C9458000C94580029
S11300100C9458000C9458000C9458000C945800FC
S11300200C9458000C9458000C9458000C945800EC
S11300300C9458000C9458000C9458000C945800DC
S11300400C9458000C9458000C944C010C945800D7
S11300500C9458000C9458000C9458000C945800BC
S11300600C9458000C9458000A0111011801220143
S11300702C013601400111241FBECFEFD8E0DEBFB2
S1130080CDBF11E0A0E0B1E0E2E2FAE002C00590E9
S11300900D92A234B107D9F721E0A2E4B1E001C086
S11300A01D92A438B207E1F70E945A000C940F0580
S11300B00C940000CF93DF93CDB7DEB7C654D109BB
S11300C00FB6F894DEBF0FBECDBF0E94830120E0BF
S11300D040E060E083E50E94DB00789480E091E0FA
S11300E00E9496010E94A9018823E1F3CE010196A2
S11300F00E94AC01CE0101960E94FF018C01019780
S1130100029708F053C085B18B7F85B9802F0E9478
S1130110470187EC90E00197F1F700C0000080E010
S11301200E9447012EB585B1846085B930E0A8E806
S1130130B3E10E94F0016B017C012FEF30E040E05D
S113014050E00E94C80149015A01C701B60128E1E3
S113015034EE43E050E00E94C801F22EC501B40120
S113016028EE33E040E050E00E94C8012AE030E08D
S113017040E050E00E94C8011F922F931F92FF920B
S11301801F930F9386E091E09F938F938E010B5EF4
S11301901F4F1F930F930E942502C8010E949601CE
S11301A00FB6F894DEBF0FBECDBF9CCF82E291E0C4
S11301B00E94960197CFE82FE071F0E0309751F05C
S11301C094B19C6294B994B19F7E94B995B19460B2
S11301D095B906C094B1906194B994B1937D94B9E2
S11301E0462B242B206C2CBDEF2B21F09CB5906169
S11301F09CBD03C09CB59F7E9CBDE82FE7708E2FED
S113020090E08730910508F041C0FC01EC5CFF4FA1
S11302100C94EA018CB58C7F8CBD8DB581608DBD4D
S113022008958CB58C7F8CBD8DB58E7F8DBD089562
S11302308CB581608CBD8CB58D7F8CBD8DB5816096
S11302408DBD08958CB581608CBD8CB58D7F8CBDC2
S11302508DB58E7F8DBD08958CB58E7F8CBD8CB58C
S113026082608CBD8DB581608DBD08958CB58E7F07
S11302708CBD8CB582608CBD8DB58E7F8DBD08958F
S11302808CB583608CBD8DB58E7F8DBD08958EBD7C
S11302900DB407FEFDCF08951F920F920FB60F9273
S11302A011248F939F93EF93FF938091C6009091B5
S11302B0420191111FC08A3011F08D3061F4E09138
S11302C04301F0E0EC5BFE4F108281E08093420139
S11302D0109243010FC0909143019F3358F4E09171
S11302E04301F0E0EC5BFE4F8083809143018F5F1C
S11302F080934301FF91EF919F918F910F900FBED7
S11303000F901F9018951092C50087E68093C40043
S113031088E98093C10086E08093C200089590919B
S1130320C00095FFFCCF8093C6000895CF93DF9360
S1130330EC0103C021960E948F0188818111FACFBC
S11303408DE00E948F018AE00E948F01DF91CF919E
S11303500895809142010895BC0190E009C0FB0119
S1130360E90FF11DD901AC5BBE4F2C9120839F5F37
S1130370292F30E0F901EC5BFE4F40814111EFCFB2
S1130380FB01E90FF11D80E380831092420108957F
S1130390A1E21A2EAA1BBB1BFD010DC0AA1FBB1F85
S11303A0EE1FFF1FA217B307E407F50720F0A21BF7
S11303B0B30BE40BF50B661F771F881F991F1A9464
S11303C069F760957095809590959B01AC01BD018E
S11303D0CF010895EE0FFF1F0590F491E02D0994CD
S11303E0A29FB001B39FC001A39F700D811D112472
S11303F0911DB29F700D811D1124911D0895FC0162
S113040088279927E89421912032E9F3293010F0C4
S11304102E30C8F32B3241F02D3239F4689404C0E5
S11304200E941D02820F911D219120532A30C0F396
S11304301EF4909581959F4F08957AE0979F902D93
S1130440879F802D910D11240895AEE0B0E0EBE27A
S1130450F2E00C94E6040D891E8986E08C831A83ED
S113046009838FEF9FE79E838D83AE01475E5F4FC5
S11304706F89788DCE0101960E944702EF81F8853D
S1130480E00FF11F10822E96E4E00C940205ABE01D
S1130490B0E0EDE4F2E00C94D8046C017B018A0135
S11304A0FC0117821682838181FFCCC1CE010196A3
S11304B03C01F6019381F70193FD859193FF8191AE
S11304C07F01882309F4BAC1853239F493FD8591FB
S11304D093FF81917F01853229F4B60190E00E9457
S11304E03E04E7CF912C212C312CFFE1F315D8F0F9
S11304F08B3279F038F4803279F08332A1F4232DF1
S113050020611DC08D3261F0803369F4232D216098
S113051016C0832D8260382EE32DE4603E2E2AC05F
S1130520F32DF8601DC037FC2DC020ED280F2A30B4
S113053040F08E32B9F436FC81C1232D2064322E72
S113054019C036FE06C08AE0989E200D1124922E12
S113055011C0EAE02E9E200D1124222EF32DF0620C
S11305603F2E08C08C3621F4832D8068382E02C0BB
S1130570883641F4F70193FD859193FF81917F01C2
S11305808111B3CF982F9F7D9554933028F40C5F3D
S11305901F4F9FE399830DC0833631F0833771F089
S11305A0833509F059C021C0F801808189830E5F29
S11305B01F4F88248394912C530113C02801F2E027
S11305C04F0E511CF801A080B18036FE03C0692D86
S11305D070E002C06FEF7FEFC5010E9433044C014D
S11305E08201F32DFF773F2E16C0280122E0420E30
S11305F0511CF801A080B18036FE03C0692D70E063
S113060002C06FEF7FEFC5010E9428044C01F32D57
S1130610F0683F2E820133FC1BC0822D90E08816C7
S11306209906B0F4B60180E290E00E943E042A9458
S1130630F4CFF50137FC859137FE81915F01B60156
S113064090E00E943E0421102A9421E0821A91082D
S11306508114910471F7E8C0843611F0893641F5AC
S1130660F80137FE07C060817181828193810C5F3C
S11306701F4F08C060817181072E000C880B990BF5
S11306800E5F1F4FF32DFF763F2E97FF09C0909505
S11306908095709561957F4F8F4F9F4FF0683F2EE7
S11306A02AE030E0A3010E947A04882E861845C00F
S11306B0853731F4232D2F7EB22E2AE030E025C079
S11306C0932D997FB92E8F36C1F018F4883579F0BF
S11306D0B5C0803719F0883721F0B0C0E92FE06148
S11306E0BE2EB4FE0DC0FB2DF460BF2E09C034FE37
S11306F00AC0292F2660B22E06C028E030E005C0CB
S113070020E130E002C020E132E0F801B7FE07C08A
S113071060817181828193810C5F1F4F06C060816B
S1130720718180E090E00E5F1F4FA3010E947A0464
S1130730882E8618FB2DFF773F2E36FE0DC0232D05
S11307402E7FA22E891458F434FE0BC032FC09C04B
S1130750832D8E7EA82E05C0B82CA32C03C0B82CE4
S113076001C0B92CA4FE0FC0FE01E80DF11D80816B
S1130770803321F49A2D997EA92E09C0A2FE06C0C9
S1130780B394B39404C08A2D867809F0B394A3FC7F
S113079011C0A0FE06C0B21488F4280C922C9B1839
S11307A00EC0B21460F4B60180E290E00E943E04F0
S11307B0B394F7CFB21418F42B1802C0982C212C40
S11307C0A4FE10C0B60180E390E00E943E04A2FEA5
S11307D017C0A1FC03C088E790E002C088E590E060
S11307E0B6010CC08A2D867859F0A1FE02C08BE2B6
S11307F001C080E2A7FC8DE2B60190E00E943E04B5
S1130800891438F4B60180E390E00E943E049A947F
S1130810F7CF8A94F301E80DF11D8081B60190E0D1
S11308200E943E048110F5CF222009F442CEB60185
S113083080E290E00E943E042A94F6CFF60186817D
S1130840978102C08FEF9FEF2B96E2E10C94F404A2
S1130850FC010590615070400110D8F78095909587
S11308608E0F9F1F0895FC0161507040019001108C
S1130870D8F7809590958E0F9F1F08950F931F931F
S1130880CF93DF93FB01238121FD03C08FEF9FEF03
S11308902CC022FF16C0468157812481358142171E
S11308A0530744F4A081B1819D012F5F3F4F3183F1
S11308B020838C93268137812F5F3F4F3783268394
S11308C014C08B01EC01FB010084F185E02D099536
S11308D0892BE1F6D80116968D919C911797019674
S11308E017969C938E931697CE01DF91CF911F910B
S11308F00F910895FA01AA27283051F1203181F18E
S1130900E8946F936E7F6E5F7F4F8F4F9F4FAF4F13
S1130910B1E03ED0B4E03CD0670F781F891F9A1F26
S1130920A11D680F791F8A1F911DA11D6A0F711DDA
S1130930811D911DA11D20D009F468943F912AE0E6
S1130940269F11243019305D3193DEF6CF010895CE
S1130950462F4770405D4193B3E00FD0C9F7F6CFFF
S1130960462F4F70405D4A3318F0495D31FD4052C7
S1130970419302D0A9F7EACFB4E0A695979587955D
S113098077956795BA95C9F700976105710508953C
S11309909B01AC010A2E06945795479537952795E8
S11309A0BA95C9F7620F731F841F951FA01D089580
S11309B02F923F924F925F926F927F928F929F926B
S11309C0AF92BF92CF92DF92EF92FF920F931F9359
S11309D0CF93DF93CDB7DEB7CA1BDB0B0FB6F8940A
S11309E0DEBF0FBECDBF09942A88398848885F844A
S11309F06E847D848C849B84AA84B984C884DF80BB
S1130A00EE80FD800C811B81AA81B981CE0FD11D9E
S1130A100FB6F894DEBF0FBECDBFED010895F89474
S1050A20FFCF02
S1130A2231206F2032004C65637475726120506FFF
S1130A3274652025643A2025642E25303264560DCF
S1130A420A004572726F723A20496E677265736565
S1130A52206E756D65726F2031206F20322E0D0A63
S1050A6200008E
S9030000FC
