S01900004C41424F5241544F52494F5F335F5350492E73726563F0
S11300000C943B000C944D000C944D000C944D004A
S11300100C944D000C944D000C944D000C944D0028
S11300200C944D000C944D000C944D000C944D0018
S11300300C944D000C944D000C944D000C944D0008
S11300400C944D000C944D000C94EE000C944D0057
S11300500C944D000C944D000C944D000C944D00E8
S11300600C944D000C944D00AC00B300BA00C400D5
S1130070CE00D800E20011241FBECFEFD8E0DEBFCF
S1130080CDBF21E0A0E0B1E001C01D92A234B207CF
S1130090E1F70E9453000C942B010C9400008FEFA5
S11300A08AB91BB808950E944F0020E040E060E048
S11300B083E50E947D0085B18B7F85B981E30E9431
S11300C0E90087EC90E00197F1F700C0000080E0C0
S11300D00E94E9008EB595B1946095B982958F70B0
S11300E0880F880F8BB99FEF21EE84E09150204058
S11300F08040E1F700C00000DECFE82FE071F0E0BF
S1130100309751F094B19C6294B994B19F7E94B9A4
S113011095B1946095B906C094B1906194B994B1C5
S1130120937D94B9462B242B206C2CBDEF2B21F00E
S11301309CB590619CBD03C09CB59F7E9CBDE82F7F
S1130140E7708E2F90E08730910508F041C0FC01E4
S1130150EC5CFF4F0C9425018CB58C7F8CBD8DB568
S113016081608DBD08958CB58C7F8CBD8DB58E7FDF
S11301708DBD08958CB581608CBD8CB58D7F8CBD93
S11301808DB581608DBD08958CB581608CBD8CB5B5
S11301908D7F8CBD8DB58E7F8DBD08958CB58E7F82
S11301A08CBD8CB582608CBD8DB581608DBD08958C
S11301B08CB58E7F8CBD8CB582608CBD8DB58E7FE9
S11301C08DBD08958CB583608CBD8DB58E7F8DBD3E
S11301D008958EBD0DB407FEFDCF08951F920F92B2
S11301E00FB60F9211248F939F93EF93FF938091F7
S11301F0C6009091000191111FC08A3011F08D301A
S113020061F4E0910101F0E0EE5FFE4F108281E0C5
S113021080930001109201010FC0909101019F335E
S113022058F4E0910101F0E0EE5FFE4F808380918D
S113023001018F5F80930101FF91EF919F918F9155
S11302400F900FBE0F901F901895EE0FFF1F059093
S10D0250F491E02D0994F894FFCF17
S9030000FC
