:100000000C9434000C9451000C9451000C94510049
:100010000C9451000C9451000C9451000C9451001C
:100020000C9451000C9451000C9451000C9451000C
:100030000C9451000C9451000C9451000C945100FC
:100040000C9451000C9454000C9451000C945100E9
:100050000C9451000C9451000C9451000C945100DC
:100060000C9451000C94510011241FBECFEFD8E026
:10007000DEBFCDBF11E0A0E0B1E0E0EDF0E002C0F6
:1000800005900D92A230B107D9F721E0A2E0B1E0CE
:1000900001C01D92A330B207E1F70E9453000C94F7
:1000A00066000C940000FFCF1F920F920FB60F92C4
:1000B00011248F938EB58093020181E0809300011B
:1000C0008F910F900FBE0F901F901895F894FFCF4F
:0200D00001002D
:00000001FF
