:100000000C943B000C9458000C9458000C9458002D
:100010000C9458000C9458000C9458000C94580000
:100020000C9458000C9458000C9458000C945800F0
:100030000C9458000C9458000C9458000C945800E0
:100040000C9458000C9458000C9422010C94580005
:100050000C9458000C9458000C9458000C945800C0
:100060000C9458000C945800E000E700EE00F800F3
:1000700002010C01160111241FBECFEFD8E0DEBF34
:10008000CDBF11E0A0E0B1E0EEE0F3E002C00590EA
:100090000D92AA32B107D9F721E0AAE2B1E001C07E
:1000A0001D92A037B207E1F70E945E000C94850113
:1000B0000C9400008FEF8AB91BB808950E945A0073
:1000C0000E945901789420E040E060E083E50E94BE
:1000D000B10080E091E00E946C0184E191E00E9417
:1000E0006C0185B18B7F85B981E30E941D0187EC8E
:1000F00090E00197F1F700C0000080E00E941D0130
:100100008EB590E090932D0180932C0185B1846091
:1001100085B98FE39FE10197F1F700C0000085B139
:100120008B7F85B982E30E941D0187EC90E00197E7
:10013000F1F700C0000080E00E941D018EB590E044
:1001400090932B0180932A0185B1846085B99FEF3C
:1001500021EE84E0915020408040E1F700C0000093
:10016000C0CFE82FE071F0E0309751F094B19C627D
:1001700094B994B19F7E94B995B1946095B906C035
:1001800094B1906194B994B1937D94B9462B242B8A
:10019000206C2CBDEF2B21F09CB590619CBD03C061
:1001A0009CB59F7E9CBDE82FE7708E2F90E0873036
:1001B000910508F041C0FC01EC5CFF4F0C947F01FD
:1001C0008CB58C7F8CBD8DB581608DBD08958CB54F
:1001D0008C7F8CBD8DB58E7F8DBD08958CB5816073
:1001E0008CBD8CB58D7F8CBD8DB581608DBD089526
:1001F0008CB581608CBD8CB58D7F8CBD8DB58E7FAF
:100200008DBD08958CB58E7F8CBD8CB582608CBD04
:100210008DB581608DBD08958CB58E7F8CBD8CB5FC
:1002200082608CBD8DB58E7F8DBD08958CB5836049
:100230008CBD8DB58E7F8DBD08958EBD0DB407FE2E
:10024000FDCF08951F920F920FB60F9211248F9336
:100250009F93EF93FF938091C60090912E0191118F
:100260001FC08A3011F08D3061F4E0912F01F0E071
:10027000E05DFE4F108281E080932E0110922F01ED
:100280000FC090912F019F3358F4E0912F01F0E0BF
:10029000E05DFE4F808380912F018F5F80932F015F
:1002A000FF91EF919F918F910F900FBE0F901F9034
:1002B00018951092C50087E68093C40088E9809362
:1002C000C10086E08093C20008959091C00095FF20
:1002D000FCCF8093C6000895CF93DF93EC0103C059
:1002E00021960E94650188818111FACF8DE00E94DC
:1002F00065018AE00E946501DF91CF910895EE0FBC
:0E030000FF1F0590F491E02D0994F894FFCFB3
:10030E004C6579656E646F2064656C206573636CF3
:10031E0061766F0031207920322070617261206C1D
:0A032E0065637475726100256400B8
:00000001FF
