S01900004C41424F5241544F52494F5F335F5350492E73726563F0
S11300000C943B000C9458000C9458000C94580029
S11300100C9458000C9458000C9458000C945800FC
S11300200C9458000C9458000C9458000C945800EC
S11300300C9458000C9458000C9458000C945800DC
S11300400C9458000C9458000C9436010C945800ED
S11300500C9458000C9458000C9458000C945800BC
S11300600C9458000C945800F400FB0002010C019D
S1130070160120012A0111241FBECFEFD8E0DEBFF4
S1130080CDBF11E0A0E0B1E0ECE6F9E002C00590DC
S11300900D92A232B107D9F721E0A2E2B1E001C08A
S11300A01D92A436B207E1F70E945A000C94B404DE
S11300B00C940000CF93DF93CDB7DEB7E2970FB671
S11300C0F894DEBF0FBECDBF0E946D0120E040E07A
S11300D060E083E50E94C500789480E091E00E948E
S11300E0800185B18B7F85B981E00E94310187EC65
S11300F090E00197F1F700C0000080E00E94310118
S11301002EB585B1846085B930E0A8E8B3E10E94DA
S1130110BB016B017C012FEF30E040E050E00E9416
S1130120930149015A01C701B60128E134EE43E0C5
S113013050E00E949301122FC501B40128EE33E070
S113014040E050E00E9493012AE030E040E050E0BB
S11301500E9493011F922F931F921F931F9281E07D
S11301608F9386E091E09F938F938E010F5F1F4FD3
S11301701F930F930E94CA01C8010E9480010FB609
S1130180F894DEBF0FBECDBFACCFE82FE071F0E036
S1130190309751F094B19C6294B994B19F7E94B914
S11301A095B1946095B906C094B1906194B994B135
S11301B0937D94B9462B242B206C2CBDEF2B21F07E
S11301C09CB590619CBD03C09CB59F7E9CBDE82FEF
S11301D0E7708E2F90E08730910508F041C0FC0154
S11301E0EC5CFF4F0C94B5018CB58C7F8CBD8DB548
S11301F081608DBD08958CB58C7F8CBD8DB58E7F4F
S11302008DBD08958CB581608CBD8CB58D7F8CBD02
S11302108DB581608DBD08958CB581608CBD8CB524
S11302208D7F8CBD8DB58E7F8DBD08958CB58E7FF1
S11302308CBD8CB582608CBD8DB581608DBD0895FB
S11302408CB58E7F8CBD8CB582608CBD8DB58E7F58
S11302508DBD08958CB583608CBD8DB58E7F8DBDAD
S113026008958EBD0DB407FEFDCF08951F920F9221
S11302700FB60F9211248F939F93EF93FF93809166
S1130280C6009091220191111FC08A3011F08D3067
S113029061F4E0912301F0E0EC5DFE4F108281E017
S11302A080932201109223010FC0909123019F3368
S11302B058F4E0912301F0E0EC5DFE4F80838091DF
S11302C023018F5F80932301FF91EF919F918F9181
S11302D00F900FBE0F901F9018951092C50087E6DF
S11302E08093C40088E98093C10086E08093C200B3
S11302F008959091C00095FFFCCF8093C6000895A7
S1130300CF93DF93EC0103C021960E947901888189
S11303108111FACF8DE00E9479018AE00E9479016F
S1130320DF91CF910895A1E21A2EAA1BBB1BFD01F8
S11303300DC0AA1FBB1FEE1FFF1FA217B307E407C0
S1130340F50720F0A21BB30BE40BF50B661F771F18
S1130350881F991F1A9469F76095709580959095F8
S11303609B01AC01BD01CF010895EE0FFF1F059065
S1130370F491E02D0994A29FB001B39FC001A39F03
S1130380700D811D1124911DB29F700D811D1124CA
S1130390911D0895AEE0B0E0E0EDF1E00C948B0423
S11303A00D891E8986E08C831A8309838FEF9FE76A
S11303B09E838D83AE01475E5F4F6F89788DCE013A
S11303C001960E94EC01EF81F885E00FF11F108285
S11303D02E96E4E00C94A704ABE0B0E0E2EFF1E089
S11303E00C947D046C017B018A01FC011782168246
S11303F0838181FFCCC1CE0101963C01F60193813A
S1130400F70193FD859193FF81917F01882309F47E
S1130410BAC1853239F493FD859193FF81917F01AF
S1130420853229F4B60190E00E94E303E7CF912CD2
S1130430212C312CFFE1F315D8F08B3279F038F40C
S1130440803279F08332A1F4232D20611DC08D32D6
S113045061F0803369F4232D216016C0832D8260FE
S1130460382EE32DE4603E2E2AC0F32DF8601DC023
S113047037FC2DC020ED280F2A3040F08E32B9F41D
S113048036FC81C1232D2064322E19C036FE06C0ED
S11304908AE0989E200D1124922E11C0EAE02E9E2F
S11304A0200D1124222EF32DF0623F2E08C08C362D
S11304B021F4832D8068382E02C0883641F4F70178
S11304C093FD859193FF81917F018111B3CF982F83
S11304D09F7D9554933028F40C5F1F4F9FE39983BD
S11304E00DC0833631F0833771F0833509F059C07C
S11304F021C0F801808189830E5F1F4F8824839473
S1130500912C530113C02801F2E04F0E511CF80145
S1130510A080B18036FE03C0692D70E002C06FEF89
S11305207FEFC5010E94D8034C018201F32DFF77B0
S11305303F2E16C0280122E0420E511CF801A08073
S1130540B18036FE03C0692D70E002C06FEF7FEF0B
S1130550C5010E94CD034C01F32DF0683F2E8201AA
S113056033FC1BC0822D90E088169906B0F4B601C6
S113057080E290E00E94E3032A94F4CFF50137FC73
S1130580859137FE81915F01B60190E00E94E303FB
S113059021102A9421E0821A91088114910471F7A0
S11305A0E8C0843611F0893641F5F80137FE07C0FA
S11305B060817181828193810C5F1F4F08C06081CB
S11305C07181072E000C880B990B0E5F1F4FF32DC2
S11305D0FF763F2E97FF09C09095809570956195A1
S11305E07F4F8F4F9F4FF0683F2E2AE030E0A301EA
S11305F00E941F04882E861845C0853731F4232DA8
S11306002F7EB22E2AE030E025C0932D997FB92E9B
S11306108F36C1F018F4883579F0B5C0803719F0F9
S1130620883721F0B0C0E92FE061BE2EB4FE0DC0C2
S1130630FB2DF460BF2E09C034FE0AC0292F2660AA
S1130640B22E06C028E030E005C020E130E002C050
S113065020E132E0F801B7FE07C060817181828138
S113066093810C5F1F4F06C06081718180E090E030
S11306700E5F1F4FA3010E941F04882E8618FB2DB6
S1130680FF773F2E36FE0DC0232D2E7FA22E891418
S113069058F434FE0BC032FC09C0832D8E7EA82E84
S11306A005C0B82CA32C03C0B82C01C0B92CA4FEDF
S11306B00FC0FE01E80DF11D8081803321F49A2DD5
S11306C0997EA92E09C0A2FE06C0B394B39404C0B7
S11306D08A2D867809F0B394A3FC11C0A0FE06C04D
S11306E0B21488F4280C922C9B180EC0B21460F437
S11306F0B60180E290E00E94E303B394F7CFB21412
S113070018F42B1802C0982C212CA4FE10C0B6019A
S113071080E390E00E94E303A2FE17C0A1FC03C0A3
S113072088E790E002C088E590E0B6010CC08A2D0D
S1130730867859F0A1FE02C08BE201C080E2A7FCDA
S11307408DE2B60190E00E94E303891438F4B60107
S113075080E390E00E94E3039A94F7CF8A94F30134
S1130760E80DF11D8081B60190E00E94E303811041
S1130770F5CF222009F442CEB60180E290E00E9437
S1130780E3032A94F6CFF6018681978102C08FEFA6
S11307909FEF2B96E2E10C949904FC0105906150C3
S11307A070400110D8F7809590958E0F9F1F089583
S11307B0FC016150704001900110D8F7809590952C
S11307C08E0F9F1F08950F931F93CF93DF93FB0109
S11307D0238121FD03C08FEF9FEF2CC022FF16C0A1
S11307E046815781248135814217530744F4A081FF
S11307F0B1819D012F5F3F4F318320838C932681EC
S113080037812F5F3F4F3783268314C08B01EC0160
S1130810FB010084F185E02D0995892BE1F6D801CF
S113082016968D919C911797019617969C938E938B
S11308301697CE01DF91CF911F910F910895FA0180
S1130840AA27283051F1203181F1E8946F936E7F0B
S11308506E5F7F4F8F4F9F4FAF4FB1E03ED0B4E0FC
S11308603CD0670F781F891F9A1FA11D680F791F3D
S11308708A1F911DA11D6A0F711D811D911DA11D4E
S113088020D009F468943F912AE0269F112430195E
S1130890305D3193DEF6CF010895462F4770405DF9
S11308A04193B3E00FD0C9F7F6CF462F4F70405DA8
S11308B04A3318F0495D31FD4052419302D0A9F703
S11308C0EACFB4E0A6959795879577956795BA95FD
S11308D0C9F700976105710508959B01AC010A2EC3
S11308E006945795479537952795BA95C9F7620F9A
S11308F0731F841F951FA01D08952F923F924F923E
S11309005F926F927F928F929F92AF92BF92CF929B
S1130910DF92EF92FF920F931F93CF93DF93CDB7A4
S1130920DEB7CA1BDB0B0FB6F894DEBF0FBECDBF1C
S113093009942A88398848885F846E847D848C84ED
S11309409B84AA84B984C884DF80EE80FD800C81F6
S11309501B81AA81B981CE0FD11D0FB6F894DEBFD9
S10F09600FBECDBFED010895F894FFCF49
S113096C31206F2032004C65637475726120506FB6
S113097C74652025643A2025642E25303264560D86
S105098C0A005B
S9030000FC
