:100000000C9434000C9451000C9451000C94510049
:100010000C9451000C9451000C9451000C9451001C
:100020000C9451000C9451000C9451000C9451000C
:100030000C9451000C9451000C9451000C945100FC
:100040000C9451000C9451000C9408020C94510033
:100050000C9451000C9451000C9451000C945100DC
:100060000C9451000C94510011241FBECFEFD8E026
:10007000DEBFCDBF11E0A0E0B1E0E2E4FBE002C0F2
:1000800005900D92AA35B107D9F721E0AAE5B1E0B4
:1000900001C01D92A53CB207E1F70E94AD010C948E
:1000A0009F050C94000080E480937C0086E8809398
:1000B0007A000895ECE7F0E09081907F8F70892BB3
:1000C0008083EAE7F0E080818064808380917A0019
:1000D00086FDFCCF809178009091790008959BB1C6
:1000E0009370282F2C7F922B9BB995B19C7F8370A6
:1000F000892B85B9089585B1846085B985E08A9595
:10010000F1F7000085B18B7F85B987EC90E001970E
:10011000F1F700C00000089595B19F7E95B995B1A3
:10012000977F95B90E946F000E947B00089584B16B
:100130008C6184B98AB18C6F8AB984B1836084B9C7
:1001400085B1837E85B92FEF83EC99E02150804003
:100150009040E1F700C0000088E30E948C008FE12E
:100160009EE40197F1F700C0000088E30E948C0034
:100170009FEF23EC89E0915020408040E1F700C0E0
:1001800000008CE00E948C0081E00E948C008FE3D4
:100190009FE10197F1F700C0000086E00E948C000B
:1001A000089595B1906195B995B1977F95B90E94E1
:1001B0006F000E947B000895CF93DF93EC0103C092
:1001C0000E94D100219688818111FACFDF91CF91D1
:1001D0000895811103C080E8860F02C080EC860F6D
:1001E0000E948C0008958F929F92AF92BF92CF92FF
:1001F000DF92EF92FF921F93CF93DF93142F9C0116
:10020000A8E8B3E10E94A6026B017C012FEF33E066
:1002100040E050E00E94840249015A01C701B60142
:1002200028E13CE94FE050E00E948402C22FC50162
:10023000B40128EE33E040E050E00E9484022AE05E
:1002400030E040E050E00E948402D22F61E080E084
:100250000E94E90083E291E00E94DC0060E081E01E
:100260000E94E9001F92DF931F92CF9380E091E0FC
:100270009F938F93C5EBD1E0DF93CF930E94B5029C
:10028000CE010E94DC0067E080E00E94E9008AE283
:1002900091E00E94DC0066E081E00E94E90080912C
:1002A0005C018F9380915B018F9389E091E09F9334
:1002B0008F93DF93CF930E94B502CE010E94DC00A2
:1002C0006CE080E00E94E9008DE091E00E94DC009B
:1002D0006BE081E00E94E9001F921F9380E191E0B2
:1002E0009F938F93DF93CF930E94B502CE010E941C
:1002F000DC008DB79EB744960FB6F8949EBF0FBE34
:100300008DBFDF91CF911F91FF90EF90DF90CF9045
:10031000BF90AF909F908F9008950E9465028823B0
:10032000A9F081EA91E00E9468028091A1018B32DC
:1003300031F480915A018F5F80935A0107C08D324A
:1003400029F480915A01815080935A0180915A0179
:10035000803410F010925A0108950E9497000E9474
:1003600053000E943F02789463E080E00E94E9001D
:1003700084E191E00E94DC0061E081E00E94E900FC
:100380008FE191E00E94DC0069E081E00E94E900D9
:1003900086E291E00E94DC008DE291E00E94520230
:1003A0002FEF8DE399E4215080409040E1F700C0A9
:1003B000000081E00E948C008FE39FE10197F1F73C
:1003C00000C0000080E00E945A0090935E0180937C
:1003D0005D0181E00E945A0090935C0180935B0173
:1003E0000E948D0160915B0170915C0140915A0106
:1003F00080915D0190915E010E94F3009FEF21EEDC
:1004000084E0915020408040E1F700C00000DACF46
:100410001F920F920FB60F9211248F939F93EF9319
:10042000FF938091C60090915F0191111FC08A30A7
:1004300011F08D3061F4E0916001F0E0EF59FE4F72
:10044000108281E080935F01109260010FC0909153
:1004500060019F3358F4E0916001F0E0EF59FE4FE6
:100460008083809160018F5F80936001FF91EF91A5
:100470009F918F910F900FBE0F901F901895109223
:10048000C50087E68093C40088E98093C10086E0B8
:100490008093C20008959091C00095FFFCCF809397
:1004A000C6000895CF93DF93EC0103C021960E940C
:1004B0004B0288818111FACF8DE00E944B028AE0C5
:1004C0000E944B02DF91CF91089580915F010895C2
:1004D000BC0190E009C0FB01E90FF11DD901AF5942
:1004E000BE4F2C9120839F5F292F30E0F901EF59F7
:1004F000FE4F40814111EFCFFB01E90FF11D80E379
:10050000808310925F010895A1E21A2EAA1BBB1BE3
:10051000FD010DC0AA1FBB1FEE1FFF1FA217B307CF
:10052000E407F50720F0A21BB30BE40BF50B661FE5
:10053000771F881F991F1A9469F7609570958095A9
:1005400090959B01AC01BD01CF010895A29FB00120
:10055000B39FC001A39F700D811D1124911DB29FF7
:10056000700D811D1124911D0895AEE0B0E0EBEBFC
:10057000F2E00C9476050D891E8986E08C831A833F
:1005800009838FEF9FE79E838D83AE01475E5F4FA8
:100590006F89788DCE0101960E94D702EF81F88590
:1005A000E00FF11F10822E96E4E00C949205ABE070
:1005B000B0E0EDEDF2E00C9468056C017B018A017E
:1005C000FC0117821682838181FFCCC1CE01019686
:1005D0003C01F6019381F70193FD859193FF819191
:1005E0007F01882309F4BAC1853239F493FD8591DE
:1005F00093FF81917F01853229F4B60190E00E943A
:10060000CE04E7CF912C212C312CFFE1F315D8F04B
:100610008B3279F038F4803279F08332A1F4232DD3
:1006200020611DC08D3261F0803369F4232D21607B
:1006300016C0832D8260382EE32DE4603E2E2AC042
:10064000F32DF8601DC037FC2DC020ED280F2A3097
:1006500040F08E32B9F436FC81C1232D2064322E55
:1006600019C036FE06C08AE0989E200D1124922EF5
:1006700011C0EAE02E9E200D1124222EF32DF062EF
:100680003F2E08C08C3621F4832D8068382E02C09E
:10069000883641F4F70193FD859193FF81917F01A5
:1006A0008111B3CF982F9F7D9554933028F40C5F20
:1006B0001F4F9FE399830DC0833631F0833771F06C
:1006C000833509F059C021C0F801808189830E5F0C
:1006D0001F4F88248394912C530113C02801F2E00A
:1006E0004F0E511CF801A080B18036FE03C0692D69
:1006F00070E002C06FEF7FEFC5010E94C3044C01A0
:100700008201F32DFF773F2E16C0280122E0420E12
:10071000511CF801A080B18036FE03C0692D70E045
:1007200002C06FEF7FEFC5010E94B8044C01F32DAA
:10073000F0683F2E820133FC1BC0822D90E08816AA
:100740009906B0F4B60180E290E00E94CE042A94AB
:10075000F4CFF50137FC859137FE81915F01B60139
:1007600090E00E94CE0421102A9421E0821A910880
:100770008114910471F7E8C0843611F0893641F58F
:10078000F80137FE07C060817181828193810C5F1F
:100790001F4F08C060817181072E000C880B990BD8
:1007A0000E5F1F4FF32DFF763F2E97FF09C09095E8
:1007B0008095709561957F4F8F4F9F4FF0683F2ECA
:1007C0002AE030E0A3010E940A05882E861845C061
:1007D000853731F4232D2F7EB22E2AE030E025C05C
:1007E000932D997FB92E8F36C1F018F4883579F0A2
:1007F000B5C0803719F0883721F0B0C0E92FE0612B
:10080000BE2EB4FE0DC0FB2DF460BF2E09C034FE19
:100810000AC0292F2660B22E06C028E030E005C0AD
:1008200020E130E002C020E132E0F801B7FE07C06D
:1008300060817181828193810C5F1F4F06C060814E
:10084000718180E090E00E5F1F4FA3010E940A05B6
:10085000882E8618FB2DFF773F2E36FE0DC0232DE8
:100860002E7FA22E891458F434FE0BC032FC09C02E
:10087000832D8E7EA82E05C0B82CA32C03C0B82CC7
:1008800001C0B92CA4FE0FC0FE01E80DF11D80814E
:10089000803321F49A2D997EA92E09C0A2FE06C0AC
:1008A000B394B39404C08A2D867809F0B394A3FC62
:1008B00011C0A0FE06C0B21488F4280C922C9B181C
:1008C0000EC0B21460F4B60180E290E00E94CE0443
:1008D000B394F7CFB21418F42B1802C0982C212C23
:1008E000A4FE10C0B60180E390E00E94CE04A2FEF8
:1008F00017C0A1FC03C088E790E002C088E590E043
:10090000B6010CC08A2D867859F0A1FE02C08BE298
:1009100001C080E2A7FC8DE2B60190E00E94CE0407
:10092000891438F4B60180E390E00E94CE049A94D2
:10093000F7CF8A94F301E80DF11D8081B60190E0B4
:100940000E94CE048110F5CF222009F442CEB601D8
:1009500080E290E00E94CE042A94F6CFF6018681D0
:10096000978102C08FEF9FEF2B96E2E10C948405F4
:10097000FC010590615070400110D8F7809590956A
:100980008E0F9F1F0895FC0161507040019001106F
:10099000D8F7809590958E0F9F1F08950F931F9302
:1009A000CF93DF93FB01238121FD03C08FEF9FEFE6
:1009B0002CC022FF16C04681578124813581421701
:1009C000530744F4A081B1819D012F5F3F4F3183D4
:1009D00020838C93268137812F5F3F4F3783268377
:1009E00014C08B01EC01FB010084F185E02D099519
:1009F000892BE1F6D80116968D919C911797019657
:100A000017969C938E931697CE01DF91CF911F91ED
:100A10000F910895FA01AA27283051F1203181F170
:100A2000E8946F936E7F6E5F7F4F8F4F9F4FAF4FF6
:100A3000B1E03ED0B4E03CD0670F781F891F9A1F09
:100A4000A11D680F791F8A1F911DA11D6A0F711DBD
:100A5000811D911DA11D20D009F468943F912AE0C9
:100A6000269F11243019305D3193DEF6CF010895B1
:100A7000462F4770405D4193B3E00FD0C9F7F6CFE2
:100A8000462F4F70405D4A3318F0495D31FD4052AA
:100A9000419302D0A9F7EACFB4E0A6959795879540
:100AA00077956795BA95C9F700976105710508951F
:100AB0009B01AC010A2E06945795479537952795CB
:100AC000BA95C9F7620F731F841F951FA01D089563
:100AD0002F923F924F925F926F927F928F929F924E
:100AE000AF92BF92CF92DF92EF92FF920F931F933C
:100AF000CF93DF93CDB7DEB7CA1BDB0B0FB6F894ED
:100B0000DEBF0FBECDBF09942A88398848885F842C
:100B10006E847D848C849B84AA84B984C884DF809D
:100B2000EE80FD800C811B81AA81B981CE0FD11D81
:100B30000FB6F894DEBF0FBECDBFED010895F89457
:020B4000FFCFE5
:100B420025642E2530326456002534640053330068
:100B5200253364004249454E56454E49444F0050A4
:100B620043303D5331005043313D533200272B2750
:100B7200207061726120696E6372656D656E746169
:100B820072207920272D27207061726120646563AD
:0A0B920072656D656E7461723A00C1
:00000001FF
