:100000000C9434000C9449000C9449000C94490061
:100010000C9449000C9449000C9449000C9449003C
:100020000C9449000C9449000C9449000C9449002C
:100030000C9449000C9449000C9449000C9449001C
:100040000C9449000C9449000C9449000C9449000C
:100050000C9449000C9449000C9449000C944900FC
:100060000C9449000C94490011241FBECFEFD8E036
:10007000DEBFCDBF11E0A0E0B1E0E8ECF1E002C0EE
:1000800005900D92A031B107D9F70E94CF000C94D2
:10009000E2000C9400009BB19370282F2C7F922BD0
:1000A0009BB995B19C7F8370892B85B9089585B1E3
:1000B000846085B985E08A95F1F7000085B18B7F72
:1000C00085B987EC90E00197F1F700C00000089532
:1000D00095B19F7E95B995B1977F95B90E944B00D8
:1000E0000E945700089584B18C6184B98AB18C6FE5
:1000F0008AB984B1836084B985B1837E85B92FEFD5
:1001000080E792E0215080409040E1F700C000007D
:1001100088E30E9468008FE19EE40197F1F700C038
:10012000000088E30E9468009FEF23EC89E0915073
:1001300020408040E1F700C000008CE00E94680091
:1001400081E00E9468008FE39FE10197F1F700C012
:10015000000086E00E946800089595B1906195B90D
:1001600095B1977F95B90E944B000E945700089562
:10017000CF93DF93EC0103C00E94AD0021968881EC
:100180008111FACFDF91CF910895811103C080E8EA
:10019000860F02C080EC860F0E94680008950E94BE
:1001A000730060E080E00E94C50080E091E00E9462
:1001B000B80062E081E00E94C5008CE091E00E94FE
:0801C000B800FFCFF894FFCF57
:1001C800484F4C41204D554E444F21003A440000C1
:00000001FF
