S01400004C41425F43415252455241532E737265638F
S11300000C9434000C9451000C9451000C94510045
S11300100C94B2000C9451000C9451000C945100B7
S11300200C9451000C9451000C9451000C94510008
S11300300C9451000C9451000C942E010C9451001A
S11300400C9451000C9451000C9451000C945100E8
S11300500C9451000C9451000C9451000C945100D8
S11300600C9451000C94510011241FBECFEFD8E022
S1130070DEBFCDBF11E0A0E0B1E0EAE4F3E002C0EE
S113008005900D92A031B107D9F721E0A0E1B1E0CC
S113009001C01D92AD31B207E1F70E94AA000C9491
S11300A0A3010C94000080911C01823010F480E0C4
S11300B001C081E090911C01933008F0826090911E
S11300C01C01943008F0846090911B0191118860A8
S11300D090911B01923008F0806190911B01933044
S11300E008F0806285B980911B01843020F088B1CA
S11300F0816088B9089588B18E7F88B908958FEF9B
S11301008AB91BB884B915B887B1816087B988B139
S11301108E7F88B987B1817F87B988B18E6088B9AD
S11301200895E8E6F0E0808182608083ECE6F0E008
S113013080818E608083089584B5826084BD85B596
S1130140836085BD89EF87BDEEE6F0E08081826043
S1130150808308950E947F000E9491000E949C0069
S11301607894FFCF1F920F920FB60F9211242F9302
S11301703F934F935F936F937F938F939F93AF932B
S1130180BF93EF93FF9331991BC080911A01882389
S1130190B9F08091180190911901892B89F480910B
S11301A01C01843028F480911C018F5F80931C0112
S11301B00E94530084EF91E09093190180931801F9
S11301C032991BC080911A018823B9F080911601DD
S11301D090911701892B89F480911B01843028F4B4
S11301E080911B018F5F80931B010E94530084EF59
S11301F091E0909317018093160133991EC080916A
S1130200140190911501892BC1F481E080931201AE
S113021089E08093130110921A0110921C0110922C
S11302201B010E945300109211011092100184EFDF
S113023091E09093150180931401FF91EF91BF9188
S1130240AF919F918F917F916F915F914F913F916A
S11302502F910F900FBE0F901F9018951F920F9221
S11302600FB60F9211242F938F939F93EF93FF93C5
S11302708091180190911901892B49F080911801FE
S1130280909119010197909319018093180180911D
S1130290160190911701892B49F0809116019091D4
S11302A0170101979093170180931601809114010F
S11302B090911501892B49F08091140190911501B9
S11302C001979093150180931401E0911301F0E0DC
S11302D0E050FF4F808190911C01911180688BB98F
S11302E080911201813029F58091100190911101C2
S11302F0883E9340A8F01092110110921001809151
S113030013018823B1F0809113018150809313016C
S11303108091130181110DC081E080931A0109C0FD
S11303208091100190911101019690931101809395
S11303301001FF91EF919F918F912F910F900FBE1C
S10D03400F901F901895F894FFCF5A
S113034A3F0C5B5E6C76771C7F7E7D67334F7371DF
S9030000FC
