:100000000C9434000C9451000C9451000C94510049
:100010000C94EB000C9451000C9451000C94510082
:100020000C9451000C9451000C9451000C9451000C
:100030000C9451000C9451000C945A010C945100F2
:100040000C9451000C9451000C9451000C945100EC
:100050000C9451000C9451000C9451000C945100DC
:100060000C9451000C94510011241FBECFEFD8E026
:10007000DEBFCDBF11E0A0E0B1E0E8EBF3E002C0ED
:1000800005900D92A231B107D9F721E0A2E1B1E0CC
:1000900001C01D92AB31B207E1F70E94E1000C9460
:1000A000DA010C9400008AB18F678AB908958F70C5
:1000B000E82FF0E0EF5FFE4F80819BB190788F7763
:1000C000892B8BB908958FEF8AB91BB884B915B8FD
:1000D00087B1816087B988B18E7F88B987B1817F08
:1000E00087B988B18E6088B90895E8E6F0E080812C
:1000F00082608083ECE6F0E080818E6080830895EA
:1001000084B5826084BD85B5836085BD89EF87BD78
:10011000EEE6F0E08081826080830895809119018D
:10012000823011F080E001C081E09091190193309C
:1001300009F4826090911901943019F4846010924E
:10014000180190911A01913009F4886090911A0178
:10015000923009F4806190911A01943019F4806210
:100160001092180190911A01933021F498B1916086
:1001700098B903C098B19E7F98B9909119019430B5
:1001800069F490911801911109C088B18E7F88B9E6
:1001900081E0809300011092140187E090911A0190
:1001A000943069F490911801911109C088B181606F
:1001B00088B982E0809300011092140188E785B924
:1001C00008950E9463000E9475000E9480000E94B2
:1001D00053007894FFCF1F920F920FB60F92112405
:1001E0002F933F934F935F936F937F938F939F933F
:1001F000AF93BF93EF93FF93319916C0809118018D
:10020000882391F08091170181110EC080911A010D
:10021000843050F480911A018F5F80931A010E94FC
:100220008E0088EC80931701329916C080911801D6
:10023000882391F08091160181110EC080911901DF
:10024000843050F4809119018F5F809319010E94CE
:100250008E0088EC8093160133991BC080911501A4
:10026000811117C01092180181E08093140110923F
:100270001A011092190115B810921301109212016F
:1002800088B18E7F88B985E08093000188EC8093E7
:100290001501FF91EF91BF91AF919F918F917F9148
:1002A0006F915F914F913F912F910F900FBE0F90E3
:1002B0001F9018951F920F920FB60F9211242F9333
:1002C0003F934F935F936F937F938F939F93AF93DE
:1002D000BF93EF93FF9380911701882329F08091BA
:1002E000170181508093170180911601882329F00E
:1002F0008091160181508093160180911501882309
:1003000029F08091150181508093150180910001A1
:100310000E94570080911901813021F080911901CC
:10032000843059F48BB180688BB980911A01843084
:1003300039F48BB18F778BB903C08BB18F778BB9C1
:1003400080911401813029F580911201909113015F
:10035000883E9340A8F010921301109212018091F0
:1003600000018823B1F08091000181508093000149
:100370008091000181110DC081E08093180109C0B6
:100380008091120190911301019690931301809333
:100390001201FF91EF91BF91AF919F918F917F914A
:1003A0006F915F914F913F912F910F900FBE0F90E2
:0803B0001F901895F894FFCF8F
:1003B800053F0C5B5E6C76771C7F7E7D67334F73E1
:0203C8007100C2
:00000001FF
