:100000000C943B000C944D000C944D000C944D004E
:100010000C944D000C944D000C944D000C944D002C
:100020000C944D000C944D000C944D000C944D001C
:100030000C944D000C944D000C944D000C944D000C
:100040000C944D000C947E000C94FE000C944D001A
:100050000C944D000C944D000C944D000C944D00EC
:100060000C944D000C944D00C100C800CF00D90085
:10007000E300ED00F70011241FBECFEFD8E0DEBF94
:10008000CDBF21E0A0E0B1E001C01D92A334B207D2
:10009000E1F70E946B000C943B010C94000080E49B
:1000A00080937C0086E880937A000895ECE7F0E086
:1000B0009081907F8F70892B8083EAE7F0E08081C8
:1000C0008064808380917A0086FDFCCF80917800E7
:1000D0009091790008950E944F0020E040E060E098
:1000E00080E40E949200789480E00E9456009695E9
:1000F00087959695879580930001F6CF1F920F9272
:100100000FB60F9211248F938EB5813321F4809115
:1001100000018EBD01C01EBC8F910F900FBE0F90CD
:100120001F901895E82FE071F0E0309751F094B1EE
:100130009C6294B994B19F7E94B995B1946095B93D
:1001400006C094B1906194B994B1937D94B9462B53
:10015000242B206C2CBDEF2B21F09CB590619CBD15
:1001600003C09CB59F7E9CBDE82FE7708E2F90E06A
:100170008730910508F041C0FC01EC5CFF4F0C9406
:1001800035018CB58C7F8CBD8DB581608DBD08959A
:100190008CB58C7F8CBD8DB58E7F8DBD08958CB553
:1001A00081608CBD8CB58D7F8CBD8DB581608DBD22
:1001B00008958CB581608CBD8CB58D7F8CBD8DB55F
:1001C0008E7F8DBD08958CB58E7F8CBD8CB5826081
:1001D0008CBD8DB581608DBD08958CB58E7F8CBD35
:1001E0008CB582608CBD8DB58E7F8DBD08958CB52C
:1001F00083608CBD8DB58E7F8DBD08951F920F924B
:100200000FB60F9211248F939F93EF93FF938091DA
:10021000C6009091010191111FC08A3011F08D30FC
:1002200061F4E0910201F0E0ED5FFE4F108281E0A9
:1002300080930101109202010FC0909102019F333F
:1002400058F4E0910201F0E0ED5FFE4F8083809171
:1002500002018F5F80930201FF91EF919F918F9137
:100260000F900FBE0F901F901895EE0FFF1F059077
:0A027000F491E02D0994F894FFCFFB
:00000001FF
