:100000000C943B000C944D000C944D000C944D004E
:100010000C944D000C944D000C944D000C944D002C
:100020000C944D000C944D000C944D000C944D001C
:100030000C944D000C944D000C944D000C944D000C
:100040000C944D000C9492000C9418010C944D00EB
:100050000C944D000C944D000C944D000C944D00EC
:100060000C944D000C944D00DB00E200E900F3001D
:10007000FD000701110111241FBECFEFD8E0DEBF44
:10008000CDBF21E0A0E0B1E001C01D92A434B207D1
:10009000E1F70E946F000C9455010C94000080E47D
:1000A00080937C0086E880937A000895ECE7F0E086
:1000B0009081907F8F70892B8083EAE7F0E08081C8
:1000C0008064808380917A0086FDFCCF80917800E7
:1000D0009091790008958FEF8AB91BB808950E9416
:1000E0006B000E944F0020E040E060E080E40E944E
:1000F000AC00789481E00E9456009695879596957D
:1001000087958093010182E00E945600969587951D
:10011000969587958093000182958F70880F880F40
:100120008BB9E8CF1F920F920FB60F9211248F93C5
:100130008EB5813321F4809101018EBD07C08233D9
:1001400021F4809100018EBD01C01EBC8F910F90E3
:100150000FBE0F901F901895E82FE071F0E03097D8
:1001600051F094B19C6294B994B19F7E94B995B1C9
:10017000946095B906C094B1906194B994B1937D9F
:1001800094B9462B242B206C2CBDEF2B21F09CB571
:1001900090619CBD03C09CB59F7E9CBDE82FE7701D
:1001A0008E2F90E08730910508F041C0FC01EC5C97
:1001B000FF4F0C944F018CB58C7F8CBD8DB5816049
:1001C0008DBD08958CB58C7F8CBD8DB58E7F8DBD1A
:1001D00008958CB581608CBD8CB58D7F8CBD8DB53F
:1001E00081608DBD08958CB581608CBD8CB58D7F8F
:1001F0008CBD8DB58E7F8DBD08958CB58E7F8CBDE9
:100200008CB582608CBD8DB581608DBD08958CB537
:100210008E7F8CBD8CB582608CBD8DB58E7F8DBD83
:1002200008958CB583608CBD8DB58E7F8DBD08958E
:100230001F920F920FB60F9211248F939F93EF93FB
:10024000FF938091C6009091020191111FC08A30E6
:1002500011F08D3061F4E0910301F0E0EC5FFE4FAE
:10026000108281E080930201109203010FC09091EF
:1002700003019F3358F4E0910301F0E0EC5FFE4F7F
:100280008083809103018F5F80930301FF91EF9141
:100290009F918F910F900FBE0F901F901895EE0FAA
:0E02A000FF1F0590F491E02D0994F894FFCF14
:00000001FF
